{
  "contractName": "CryptoCurrencyStore",
  "abi": [
    {
      "anonymous": false,
      "inputs": [
        {
          "indexed": false,
          "internalType": "address",
          "name": "sender",
          "type": "address"
        }
      ],
      "name": "DepositLog",
      "type": "event"
    },
    {
      "inputs": [
        {
          "internalType": "address",
          "name": "",
          "type": "address"
        }
      ],
      "name": "balances",
      "outputs": [
        {
          "internalType": "uint256",
          "name": "",
          "type": "uint256"
        }
      ],
      "stateMutability": "view",
      "type": "function",
      "constant": true
    },
    {
      "inputs": [],
      "name": "lockedState",
      "outputs": [
        {
          "internalType": "bool",
          "name": "",
          "type": "bool"
        }
      ],
      "stateMutability": "view",
      "type": "function",
      "constant": true
    },
    {
      "inputs": [],
      "name": "deposit",
      "outputs": [],
      "stateMutability": "payable",
      "type": "function",
      "payable": true
    },
    {
      "inputs": [],
      "name": "withdraw",
      "outputs": [],
      "stateMutability": "nonpayable",
      "type": "function"
    },
    {
      "inputs": [],
      "name": "getBalance",
      "outputs": [
        {
          "internalType": "uint256",
          "name": "",
          "type": "uint256"
        }
      ],
      "stateMutability": "view",
      "type": "function",
      "constant": true
    },
    {
      "inputs": [],
      "name": "getContractAddress",
      "outputs": [
        {
          "internalType": "address",
          "name": "",
          "type": "address"
        }
      ],
      "stateMutability": "view",
      "type": "function",
      "constant": true
    }
  ],
  "bytecode": "0x608060405234801561001057600080fd5b506105c6806100206000396000f3fe6080604052600436106100555760003560e01c806312065fe01461005a57806327e235e31461008557806332a2c5d0146100c25780633ccfd60b146100ed5780636591edba14610104578063d0e30db01461012f575b600080fd5b34801561006657600080fd5b5061006f610139565b60405161007c919061035f565b60405180910390f35b34801561009157600080fd5b506100ac60048036038101906100a791906103dd565b610141565b6040516100b9919061035f565b60405180910390f35b3480156100ce57600080fd5b506100d7610159565b6040516100e49190610419565b60405180910390f35b3480156100f957600080fd5b50610102610161565b005b34801561011057600080fd5b506101196102a5565b604051610126919061044f565b60405180910390f35b6101376102b8565b005b600047905090565b60006020528060005260406000206000915090505481565b600030905090565b60008060003373ffffffffffffffffffffffffffffffffffffffff1673ffffffffffffffffffffffffffffffffffffffff168152602001908152602001600020549050600081116101b157600080fd5b60003373ffffffffffffffffffffffffffffffffffffffff16826040516101d79061049b565b60006040518083038185875af1925050503d8060008114610214576040519150601f19603f3d011682016040523d82523d6000602084013e610219565b606091505b505090508061025d576040517f08c379a00000000000000000000000000000000000000000000000000000000081526004016102549061050d565b60405180910390fd5b60008060003373ffffffffffffffffffffffffffffffffffffffff1673ffffffffffffffffffffffffffffffffffffffff168152602001908152602001600020819055505050565b600160009054906101000a900460ff1681565b346000803373ffffffffffffffffffffffffffffffffffffffff1673ffffffffffffffffffffffffffffffffffffffff1681526020019081526020016000206000828254610306919061055c565b925050819055507f4b08179a4db775de80639c432fcddeae691225ee8938376c4c70850c7340c9493360405161033c9190610419565b60405180910390a1565b6000819050919050565b61035981610346565b82525050565b60006020820190506103746000830184610350565b92915050565b600080fd5b600073ffffffffffffffffffffffffffffffffffffffff82169050919050565b60006103aa8261037f565b9050919050565b6103ba8161039f565b81146103c557600080fd5b50565b6000813590506103d7816103b1565b92915050565b6000602082840312156103f3576103f261037a565b5b6000610401848285016103c8565b91505092915050565b6104138161039f565b82525050565b600060208201905061042e600083018461040a565b92915050565b60008115159050919050565b61044981610434565b82525050565b60006020820190506104646000830184610440565b92915050565b600081905092915050565b50565b600061048560008361046a565b915061049082610475565b600082019050919050565b60006104a682610478565b9150819050919050565b600082825260208201905092915050565b7f4661696c656420746f2073656e64204574686572000000000000000000000000600082015250565b60006104f76014836104b0565b9150610502826104c1565b602082019050919050565b60006020820190508181036000830152610526816104ea565b9050919050565b7f4e487b7100000000000000000000000000000000000000000000000000000000600052601160045260246000fd5b600061056782610346565b915061057283610346565b925082820190508082111561058a5761058961052d565b5b9291505056fea26469706673582212208e0f338f82c440af98586d88a3edc37d5429d9c263d0299d2bafbaf87d660f7e64736f6c63430008130033",
  "immutableReferences": {},
  "source": "// SPDX-License-Identifier: MIT\npragma solidity ^0.8.0;\n\ncontract CryptoCurrencyStore {\n    mapping(address => uint256) public balances;\n    event DepositLog(address sender);\n\n    function deposit() public payable {\n        balances[msg.sender] += msg.value; //\n        emit DepositLog(msg.sender);\n    }\n\n    bool public lockedState; // false\n\n    function withdraw() public {\n        uint256 userBalance = balances[msg.sender]; //\n        require(userBalance > 0); //0\n        (bool sent, ) = msg.sender.call{value: userBalance}(\"\"); //fallback\n        require(sent, \"Failed to send Ether\"); //sentfalse\n        balances[msg.sender] = 0; //0\n    }\n\n    function getBalance() public view returns (uint256) {\n        return address(this).balance;\n    }\n\n    function getContractAddress() public view returns (address) {\n        return address(this);\n    }\n}\n",
  "sourcePath": "D:\\zhixiang\\\\demo_video\\contracts\\CryptoCurrencyStore.sol",
  "compiler": {
    "name": "solc",
    "version": "0.8.19+commit.7dd6d404.Emscripten.clang"
  },
  "schemaVersion": "3.4.13",
  "updatedAt": "2023-03-28T02:34:27.973Z",
  "networkType": "ethereum",
  "devdoc": {
    "kind": "dev",
    "methods": {},
    "version": 1
  },
  "userdoc": {
    "kind": "user",
    "methods": {},
    "version": 1
  }
}